:020000040800F2
:1000000000500020DD1D0008851D0008871D000828
:10001000891D00088B1D00088D1D000800000000D0
:100020000000000000000000000000008F1D00081C
:10003000911D000800000000931D0008951D000898
:10004000251E0008251E0008251E0008251E000884
:10005000251E0008251E0008251E0008251E000874
:10006000251E0008251E0008251E0008251E000864
:10007000251E0008251E0008251E0008251E000854
:10008000251E0008251E0008251E0008251E000844
:10009000251E0008251E0008251E0008251E000834
:1000A000251E0008251E0008251E0008251E000824
:1000B000251E0008251E0008251E0008251E000814
:1000C000251E0008251E0008251E0008251E000804
:1000D000251E0008251E0008251E0008251E0008F4
:1000E000251E0008251E0008251E0008000000002F
:1000F0000000000000000000000000000000000000
:0C01000000000000000000005FF808F1A3
:1001100010B5054C237833B9044B13B10448AFF341
:1001200000800123237010BD6C000020000000003F
:100130008838000808B5034B1BB103490348AFF3E7
:10014000008008BD00000000700000208838000812
:100150004FF0FF0C1CEAD0521EBF1CEAD15392EAAA
:100160000C0F93EA0C0F6FD01A4480EA010C400286
:1001700018BF5FEA41211ED04FF0006343EA5010E0
:1001800043EA5111A0FB01310CF00040B1F5000F22
:100190003EBF490041EAD3715B0040EA010062F1D1
:1001A0007F02FD2A1DD8B3F1004F40EBC25008BFBB
:1001B00020F00100704790F0000F0CF0004C08BFD9
:1001C00049024CEA502040EA51207F3AC2BFD2F1A6
:1001D000FF0340EAC250704740F400004FF00003B4
:1001E000013A5DDC12F1190FDCBF00F000407047EE
:1001F000C2F10002410021FA02F1C2F1200200FA2C
:1002000002FC5FEA310040F1000053EA4C0308BFF2
:1002100020EADC70704792F0000F00F0004C02BF43
:10022000400010F4000F013AF9D040EA0C0093F0BE
:10023000000F01F0004C02BF490011F4000F013B18
:10024000F9D041EA0C018FE70CEAD15392EA0C0F86
:1002500018BF93EA0C0F0AD030F0004C18BF31F0F1
:10026000004CD8D180EA010000F00040704790F0C7
:10027000000F17BF90F0004F084691F0000F91F06B
:10028000004F14D092EA0C0F01D142020FD193EA31
:100290000C0F03D14B0218BF084608D180EA0100B9
:1002A00000F0004040F0FE4040F40000704740F095
:1002B000FE4040F44000704781F0004102E000BF82
:1002C00083F0004330B54FEA41044FEA430594EA16
:1002D000050F08BF90EA020F1FBF54EA000C55EA51
:1002E000020C7FEA645C7FEA655C00F0E2804FEA22
:1002F0005454D4EB5555B8BF6D420CDD2C4480EA04
:10030000020281EA030382EA000083EA010180EA33
:10031000020281EA0303362D88BF30BD11F0004F81
:100320004FEA01314FF4801C4CEA113102D04042B7
:1003300061EB410113F0004F4FEA03334CEA1333F2
:1003400002D0524263EB430394EA050F00F0A7800A
:10035000A4F10104D5F1200E0DDB02FA0EFC22FA05
:1003600005F2801841F1000103FA0EF2801843FAF9
:1003700005F359410EE0A5F120050EF1200E012AEA
:1003800003FA0EFC28BF4CF0020C43FA05F3C01828
:1003900051EBE37101F0004507D54FF0000EDCF1A1
:1003A000000C7EEB00006EEB0101B1F5801F1BD34A
:1003B000B1F5001F0CD349085FEA30004FEA3C0C4E
:1003C00004F101044FEA445212F5800F80F09A8044
:1003D000BCF1004F08BF5FEA500C50F1000041EB48
:1003E000045141EA050130BD5FEA4C0C404141EB4C
:1003F0000101013C28BFB1F5801FE9D291F0000F47
:1004000004BF01460020B1FA81F308BF2033A3F1F5
:100410000B03B3F120020CDA0C3208DD02F1140CEC
:10042000C2F10C0201FA0CF021FA02F10CE002F127
:100430001402D8BFC2F1200C01FA02F120FA0CFC20
:10044000DCBF41EA0C019040E41AA2BF01EB045169
:10045000294330BD6FEA04041F3C1CDA0C340EDC67
:1004600004F11404C4F1200220FA04F001FA02F3AA
:1004700040EA030021FA04F345EA030130BDC4F168
:100480000C04C4F1200220FA02F001FA04F340EA5D
:100490000300294630BD21FA04F0294630BD94F00E
:1004A000000F83F4801306BF81F480110134013DF5
:1004B0004EE77FEA645C18BF7FEA655C29D094EA66
:1004C000050F08BF90EA020F05D054EA000C04BFE4
:1004D0001946104630BD91EA030F1EBF00210020CF
:1004E00030BD5FEA545C05D14000494128BF41F06E
:1004F000004130BD14F580043CBF01F5801130BDD2
:1005000001F0004545F0FE4141F470014FF000005C
:1005100030BD7FEA645C1ABF194610467FEA655C0D
:100520001CBF0B46024650EA013406BF52EA0335AF
:1005300091EA030F41F4002130BD00BF90F0000F9D
:1005400004BF0021704730B54FF4806404F13204D9
:100550004FF000054FF0000150E700BF90F0000F92
:1005600004BF0021704730B54FF4806404F13204B9
:1005700010F0004548BF40424FF000013EE700BF89
:1005800042004FEAE2014FEA31014FEA02701FBF19
:1005900012F07F4393F07F4F81F06051704732F04B
:1005A0007F4208BF704793F07F4F04BF41F40021A2
:1005B000704730B54FF4607401F0004521F0004100
:1005C0001CE700BF50EA010208BF704730B54FF08A
:1005D00000050AE050EA010208BF704730B511F08B
:1005E000004502D5404261EB41014FF4806404F1C3
:1005F00032045FEA915C3FF4D8AE4FF003025FEA49
:10060000DC0C18BF03325FEADC0C18BF033202EBCC
:10061000DC02C2F1200300FA03FC20FA02F001FA26
:1006200003FE40EA0E0021FA02F11444BDE600BFC9
:1006300070B54FF0FF0C4CF4E06C1CEA11541DBF78
:100640001CEA135594EA0C0F95EA0C0F00F0DEF843
:100650002C4481EA030621EA4C5123EA4C5350EA28
:10066000013518BF52EA033541F4801143F4801379
:1006700038D0A0FB02CE4FF00005E1FB02E506F00A
:100680000042E0FB03E54FF00006E1FB03569CF05F
:10069000000F18BF4EF0010EA4F1FF04B6F5007F65
:1006A00064F5407404D25FEA4E0E6D4146EB0606D7
:1006B00042EAC62141EA55514FEAC52040EA5E5060
:1006C0004FEACE2EB4F1FD0C88BFBCF5E06F1ED80A
:1006D000BEF1004F08BF5FEA500E50F1000041EB41
:1006E000045170BD06F0004646EA010140EA0200EE
:1006F00081EA0301B4EB5C04C2BFD4EB0C0541EA10
:10070000045170BD41F480114FF0000E013C00F324
:10071000AB8014F1360FDEBF002001F0004170BD48
:10072000C4F10004203C35DA0C341BDC04F1140461
:10073000C4F1200500FA05F320FA04F001FA05F2ED
:1007400040EA020001F0004221F0004110EBD370BA
:1007500021FA04F642EB06015EEA430E08BF20EAE6
:10076000D37070BDC4F10C04C4F1200500FA04F389
:1007700020FA05F001FA04F240EA020001F000411B
:1007800010EBD37041F100015EEA430E08BF20EA8E
:10079000D37070BDC4F1200500FA05F24EEA020ED6
:1007A00020FA04F301FA05F243EA020321FA04F005
:1007B00001F0004121FA04F220EA020000EBD370BC
:1007C0005EEA430E08BF20EAD37070BD94F0000FBC
:1007D0000FD101F00046400041EB010111F4801FF0
:1007E00008BF013CF7D041EA060195F0000F18BFA1
:1007F000704703F00046520043EB030313F4801FDD
:1008000008BF013DF7D043EA0603704794EA0C0F96
:100810000CEA135518BF95EA0C0F0CD050EA4106AC
:1008200018BF52EA4306D1D181EA030101F0004129
:100830004FF0000070BD50EA410606BF1046194651
:1008400052EA430619D094EA0C0F02D150EA01365D
:1008500013D195EA0C0F05D152EA03361CBF10469E
:1008600019460AD181EA030101F0004141F0FE413D
:1008700041F470014FF0000070BD41F0FE4141F4C1
:10088000780170BD70B54FF0FF0C4CF4E06C1CEAC1
:1008900011541DBF1CEA135594EA0C0F95EA0C0F76
:1008A00000F0A7F8A4EB050481EA030E52EA033531
:1008B0004FEA013100F088804FEA03334FF0805552
:1008C00045EA131343EA12634FEA022245EA11157F
:1008D00045EA10654FEA00260EF000419D4208BF30
:1008E000964244F1FD0404F5407402D25B084FEADD
:1008F0003202B61A65EB03055B084FEA32024FF489
:1009000080104FF4002CB6EB020E75EB030E22BFE5
:10091000B61A754640EA0C005B084FEA3202B6EBA5
:10092000020E75EB030E22BFB61A754640EA5C0054
:100930005B084FEA3202B6EB020E75EB030E22BFE4
:10094000B61A754640EA9C005B084FEA3202B6EBE5
:10095000020E75EB030E22BFB61A754640EADC00A4
:1009600055EA060E18D04FEA051545EA16754FEA06
:1009700006164FEAC30343EA52734FEAC2025FEA24
:100980001C1CC0D111F4801F0BD141EA00014FF0B3
:1009900000004FF0004CB6E711F4801F04BF014384
:1009A0000020B4F1FD0C88BFBCF5E06F3FF6AFAEA0
:1009B000B5EB030C04BFB6EB020C5FEA500C50F130
:1009C000000041EB045170BD0EF0004E4EEA1131B3
:1009D00014EB5C04C2BFD4EB0C0541EA045170BDBA
:1009E00041F480114FF0000E013C90E645EA060EFE
:1009F0008DE60CEA135594EA0C0F08BF95EA0C0F2C
:100A00003FF43BAF94EA0C0F0AD150EA01347FF473
:100A100034AF95EA0C0F7FF425AF104619462CE74A
:100A200095EA0C0F06D152EA03353FF4FDAE1046AD
:100A3000194622E750EA410618BF52EA43067FF4FE
:100A4000C5AE50EA41047FF40DAF52EA43057FF48E
:100A5000EBAE12E74A0011D212F5001211D20DD5F9
:100A60006FF47873B3EB62520ED44FEAC12343F0B4
:100A7000004343EA505323FA02F070474FF000005E
:100A8000704750EA013002D14FF0FF3070474FF00D
:100A9000000070474FEA4102B2F1E04324BFB3F5D2
:100AA000001CDCF1FE5C0DD901F0004C4FEAC002E5
:100AB0004CEA5070B2F1004F40EB830008BF20F0C9
:100AC0000100704711F0804F21D113F13872BCBF83
:100AD00001F00040704741F480114FEA5252C2F1D8
:100AE0001802C2F1200C10FA0CF320FA02F018BF21
:100AF00040F001004FEAC1234FEAD32303FA0CFC74
:100B000040EA0C0023FA02F34FEA4303CCE77FEA02
:100B1000625307D150EA01331EBF4FF0FE4040F44C
:100B20004000704701F0004040F0FE4040F40000FB
:100B3000704700BF80F0004002E000BF81F000413C
:100B400042001FBF5FEA410392EA030F7FEA226C73
:100B50007FEA236C6AD04FEA1262D2EB1363C1BF03
:100B6000D218414048404140B8BF5B42192B88BF72
:100B7000704710F0004F40F4000020F07F4018BF95
:100B8000404211F0004F41F4000121F07F4118BFB5
:100B9000494292EA030F3FD0A2F1010241FA03FC5D
:100BA00010EB0C00C3F1200301FA03F100F0004345
:100BB00002D5494260EB4000B0F5000F13D3B0F10D
:100BC000807F06D340084FEA310102F10102FE2A7C
:100BD00051D2B1F1004F40EBC25008BF20F00100EC
:100BE00040EA03007047490040EB0000013A28BF8B
:100BF000B0F5000FEDD2B0FA80FCACF1080CB2EB0E
:100C00000C0200FA0CF0AABF00EBC250524218438B
:100C1000BCBFD0401843704792F0000F81F4000130
:100C200006BF80F400000132013BB5E74FEA410303
:100C30007FEA226C18BF7FEA236C21D092EA030F6F
:100C400004D092F0000F08BF0846704790EA010FE9
:100C50001CBF0020704712F07F4F04D1400028BF16
:100C600040F00040704712F100723CBF00F50000F8
:100C7000704700F0004343F0FE4040F4000070472E
:100C80007FEA226216BF08467FEA236301464202DA
:100C900006BF5FEA412390EA010F40F480007047ED
:100CA0004FF0000304E000BF10F0004348BF404293
:100CB0005FEA000C08BF704743F0964301464FF0CF
:100CC00000001CE050EA010208BF70474FF000032B
:100CD0000AE000BF50EA010208BF704711F000436C
:100CE00002D5404261EB41015FEA010C02BF84463C
:100CF0000146002043F0B64308BFA3F18053A3F59B
:100D00000003BCFA8CF2083AA3EBC25310DB01FAE1
:100D100002FC634400FA02FCC2F12002BCF1004F65
:100D200020FA02F243EB020008BF20F001007047F6
:100D300002F1200201FA02FCC2F1200250EA4C004A
:100D400021FA02F243EB020008BF20EADC70704790
:100D500042000ED2B2F1FE4F0BD34FF09E03B3EB25
:100D6000126209D44FEA002343F0004323FA02F051
:100D700070474FF00000704712F1610F01D142023D
:100D800002D14FF0FF3070474FF00000704700BFB6
:100D90000022034B1B685A625A6A8242FCD3704796
:100DA000DC000020F0B5002501244FF40076032775
:100DB00085B069463048CDE900640295039701F09B
:100DC000E3F82A4631462C4801F0B8F9142001F026
:100DD00073F822463146284801F0B0F91E20FFF78B
:100DE000D7FF69462448CDE90154039701F0CCF8B8
:100DF00001F05CF8204D841C4FF40071284601F08E
:100E000097F918B101F052F8A042F5D34FF40071F0
:100E1000194801F08DF910B1002005B0F0BD01F0C6
:100E200045F8154D841C4FF40071284601F080F9F7
:100E300018B901F03BF8A042F5D34FF400710E4809
:100E400001F076F90028E7D001F030F80A4D841C53
:100E50004FF40071284601F06BF918B101F026F843
:100E6000A042F5D34FF40071034801F061F9B0FAE4
:100E700080F04009D1E700BF000C0140F8B507251C
:100E80000024184E01F012F8871C4FF40071304610
:100E900001F04EF968B12820FFF77AFF4FF4007196
:100EA000304601F045F90123AB4038B924EA030488
:100EB00006E000F0FBFFB842E7D3ECE72343DCB2E7
:100EC00000F0F4FF871C4FF40071304601F030F958
:100ED00018B9013DD6D22046F8BD00F0E7FFB84270
:100EE000F1D3F6E7000C01402DE9F04701217C48E1
:100EF00001F01EF9B0FA80F07A4B40091870022117
:100F0000774801F015F9B0FA80F00024764B4009DB
:100F1000764F774E774D187001224FF40071764866
:100F20003C70347001F00AF92B685C625A6A092A35
:100F3000FCD900224FF400716F4801F0FFF800F077
:100F4000B5FF6E4CDFF8B09120604FF480714846D9
:100F500001F0EEF830B9236803F10A0800F0A6FFAB
:100F60008045F2D84FF48071634801F0E1F8002821
:100F70003BD02B68DFF888915B6ADFF87CA1C9F869
:100F8000003000F093FF20604FF48071504601F074
:100F9000CFF830B1236803F13C0800F087FF8045AB
:100FA000F2D84FF48071544801F0C2F8E8B92B68C8
:100FB000D9F800005B6A534A8342136015D9181AA6
:100FC000FFF7BCFA44A3D3E90023FFF731FB4E4BF4
:100FD0000022FFF72DFBFFF73DFD4C4B80B2188040
:100FE000012331283B7098BF33700023484D2B708C
:100FF000FFF7D8FE00286DD0FFF740FF454F464E63
:101000003870FFF73BFF3070FFF738FF434CDFF8D5
:1010100010812070FFF732FF88F80000FFF72EFFE5
:101020000246404B3F7836782478187098F80000D4
:10103000BB192344034493424CD1FFF78FFA00229B
:10104000394BFFF71FFCFFF725FD80462046FFF7D1
:1010500027FE01464046FFF773FD344B1860FFF74B
:101060008FFA0022324BFFF7E3FA0022314BFFF7F1
:1010700009FC0022304BFFF725F9FFF70BFD2F4B42
:10108000044618603046FFF769FA0022264BFFF746
:10109000F9FBFFF7FFFC06463846FFF701FE014665
:1010A0003046FFF74DFD264B18602046FFF750FEF7
:1010B000244BC0B21870FFF7F7FD01462046FFF73A
:1010C0003DFD2149FFF744F8FFF742FE1F4B187022
:1010D00001232B70BDE8F0879CC420B07268A13F4B
:1010E000000C0140B2000020B1000020CB00002025
:1010F000CA000020DC00002000080140D8000020C9
:10110000D4000020D00000200000E03FCC000020F0
:10111000C4000020C9000020C8000020C700002033
:10112000C6000020C500002000002440C0000020B0
:10113000000022400000144000004040BC0000209D
:10114000B8000020B400002000002041B3000020BF
:1011500010B5154B1C78154B1B781C43144B1B7892
:101160001C4313D001224FF40061124800F0E6FF47
:1011700000224FF480510F4800F0E0FF0122BDE84B
:1011800010404FF480610B4800F0D8BF22464FF466
:101190000061084800F0D2FF01224FF48051054859
:1011A00000F0CCFF2246EAE7B2000020B1000020A8
:1011B000CA0000200008014010B500F0C5FC052160
:1011C000164C084600F00AFC01222146144800F0A3
:1011D00059FC1421052000F001FC01222146114890
:1011E00000F050FC2321052000F0F8FB01222146ED
:1011F0000D4800F047FC3221052000F0EFFB0122F2
:1012000021460A4800F03EFC00F07CFC40F6B83075
:1012100000F052FE0122064B1A7010BD080000209B
:10122000684D0008744D00087E4D0008864D00088A
:10123000900000202DE9F047AE4DDFF8BC9200F0A1
:1012400083FC2B6899F800A00133AC4CAC4E2B60AA
:10125000BAF1000F69D00021052000F0BFFB012288
:10126000A849A94800F00EFC1421052000F0B6FBA7
:101270000122A449A54800F005FC2A21002000F025
:10128000ADFB2378002B46D0A14BA24A1B781278E5
:10129000A149A24801F040FE0122A1499F4800F067
:1012A000F1FB3421002000F099FB3378002B37D07C
:1012B0009C4B9D491A88994801F02EFE01229849BD
:1012C000964800F0DFFB05232C68B4FBF3F414F020
:1012D00001041CD1A5B201220021284600F05AFBCE
:1012E000013401223F21284600F054FB802CF1D12B
:1012F0000024A5B201222946002000F04BFB013456
:10130000012229467F2000F045FB402CF1D1BDE8A9
:10131000F04700F0F7BB8549804801F0FDFDBBE7D1
:1013200083497E4801F04EFEC8E7DFF8088298F84E
:101330000070002F65D05146052000F04FFB0122C0
:1013400070497D4800F09EFB1421052000F046FB0B
:1013500001226C49794800F095FB2A21504600F0A3
:101360003DFB2378002B42D0694B6A4A1B781278E8
:1013700069496A4801F0D0FD01226949674800F0D7
:1013800081FB3421002000F029FB3378A3B3654BA7
:1013900065491A88614801F0BFFD012260495F4834
:1013A00000F070FB05232C68B4FBF3F414F0010487
:1013B000ADD1A5B201220021284600F0EBFA01349C
:1013C00001223F21284600F0E5FA802CF1D10024CB
:1013D000A5B201222946002000F0DCFA01340122E6
:1013E00029467F2000F0D6FA402CF1D18FE74F49F3
:1013F0004A4801F091FDBFE74D49484801F0E2FD40
:10140000CBE74F4B1978002900F0A88039463846C1
:1014100000F0E4FA01223B494A4800F033FB162170
:10142000384600F0DBFA3378002B50D03D4B46496C
:101430001A883A4801F070FD01223249374800F01D
:1014400021FB2C21002000F0C9FA2378002B42D088
:101450002F4B304A1B7812782F49304801F05CFD41
:1014600001222F492D4800F00DFB3621002000F00D
:10147000B5FA99F800309BB301222949334800F0AE
:1014800001FB05232C68B4FBF3F414F001047FF492
:101490003EAFA5B201220021284600F07BFA0134BC
:1014A00001223F21284600F075FA802CF1D100245A
:1014B000A5B201222946002000F06CFA0134012275
:1014C00029467F2000F066FA402CF1D11FE7012267
:1014D0000C491F48B3E71549104801F01DFDBFE74F
:1014E00098F8003001220E490BB11A48C7E71A4894
:1014F000C5E700BF8C000020B2000020C40000201F
:10150000CB000020000000208B4D0008984D000803
:10151000C9000020C7000020A64D0008910000204F
:1015200008000020CC000020C04D0008B34D00088A
:10153000C74D0008B1000020CF4D0008DE4D000867
:10154000CA000020EB4D0008F84D00080F4E0008BF
:10155000034E0008154E00081A4E0008084600F019
:101560003DFA3378002B52D0374B38491A88384827
:1015700001F0D2FC01223749354800F083FA0C21F2
:10158000002000F02BFA2378002B45D0324B334A51
:101590001B78127832492E4801F0BEFC01222D49F9
:1015A0002B4800F06FFA1821002000F017FA23787A
:1015B000002B36D02B4B2C4A1B7812782B49244811
:1015C00001F0AAFC01222349214800F05BFA242102
:1015D000002000F003FA237843B3254B254A1B78FB
:1015E000127825491A4801F097FC01221949184838
:1015F00000F048FA3021002000F0F0F999F80030AE
:10160000CBB1012213491D4800F03CFA7FE61C498A
:101610000F4801F0D7FCADE71A490D4801F0D2FCA4
:10162000BCE719490A4801F077FCCBE7174908489D
:1016300001F0C8FCD9E798F80030012205490BB148
:101640001348E1E71348DFE7CC000020274E0008ED
:101650009100002008000020C6000020C7000020E4
:10166000334E0008C8000020C90000204D4E00087D
:10167000B3000020B4000020674E0008804E000830
:10168000034E0008414E00085B4E0008714E0008F2
:10169000924E00081A4E000810B590B01422002196
:1016A00008A801F05BFC1422002101A801F056FCFF
:1016B00002244FF480330122CDE90D43CDE9062306
:1016C0004FF4E01306A80A920F9301F061F808B1F5
:1016D00072B6FEE70F23CDE901344FF48063039027
:1016E000CDE90430214601A801F014FA08B172B620
:1016F000FEE710B010BD00002DE9F04F8BB00025C3
:10170000012400F0B5FBFFF7C7FF1022002106A857
:1017100001F024FC4FF0020B8F4B4FF400719A69DB
:101720008E4842F020029A619A694FF0030902F054
:1017300020020192019A9A694FF4007742F0080260
:101740009A619A694FF4806A02F008020292029A42
:101750009A694FF4006842F004029A619B69002282
:1017600003F004030393039B00F0E8FC00224FF412
:1017700080617A4800F0E2FC00224FF40061774873
:1017800000F0DCFC01224FF48051744800F0D6FCDC
:1017900001224FF40071724800F0D0FC704806A995
:1017A000CDE90645089400F0EFFB6D4806A9CDE9A8
:1017B00006B5089400F0E8FB4FF480734FF48056B0
:1017C000664806A9CDE90635CDF820B000F0DCFB6F
:1017D000624806A9CDE906740895CDF8249000F07A
:1017E000D3FB5E4806A9CDE906A4CDE9085900F06F
:1017F000CBFB5A4806A9CDE9085BCDE9068400F089
:10180000C3FB564806A9CDE9085BCDE9066400F0A4
:10181000BBFB534806A9CDE90674CDE9084900F0A1
:10182000B3FB50485049514BC0E90255C0E9001381
:101830004FF48043C0E90655C0E90435056200F065
:1018400071FD834608B172B6FEE71022014606A874
:1018500001F084FB4723464D464A2846C5E900234C
:101860004FF6FF73CDE904BBC5E9033BC5E905BBF2
:10187000C5F808B001F052FA08B172B6FEE7284682
:1018800006A9069601F080FA08B172B6FEE7CDE926
:10189000040004A9284601F011FB834608B172B682
:1018A000FEE7284601F0E2F95A4639462B4800F097
:1018B00045FC5A465146294800F040FC5A464146EC
:1018C000264800F03BFC22463146244800F036FC16
:1018D000234806A9CDE90674CDE9084900F054FB78
:1018E000224639461E4800F029FC00F035F900F088
:1018F0002BF900F007F9FFF75FFC22464146174835
:1019000000F01CFC4FF4FA7000F0D6FA5A4641463B
:10191000124800F013FC5A463146104800F00EFC05
:101920004FF4FA7000F0C8FA224631460B4800F036
:1019300005FC114C00F0BAFA2368C31AB3F5FA7F1C
:1019400006D32060FFF7D0FAFFF702FCFFF772FC26
:101950000A2000F0B1FAEDE7001002400008014053
:10196000000C01402401002000540040801A0600B1
:10197000DC000020002C01408800002000284FF4EB
:10198000806214BFFF210021014801F0E7BA00BFC7
:101990007E0100207F2830B510D83F290ED80D4B8E
:1019A0000D4C1D79CB0801F0070145B14AB900EB98
:1019B000C3100123225C8B401343235430BD012A02
:1019C000F5D0012200EBC310235C8A4023EA020316
:1019D000F3E700BF780100207E010020014B188052
:1019E00059807047780100202DE9F04FDFF8909082
:1019F00085B0B9F8006001920A78054632447F2A22
:101A00000C463BDCB9F802B04A785A443F2A35DC30
:101A10000027A0F1200303936278974207D322782E
:101A20001644A9F80060284605B0BDE8F08F4FF0D5
:101A30000008039B616802FB037231F812300BEB64
:101A4000070A02931FFA8AFA2278904501D30137D8
:101A5000E2E7029B06EB080003FA08F2130458BF02
:101A6000019B514654BFB3FA83F2019A80B258BF2A
:101A70005209FFF78FFF08F10108E5E70025D2E7DB
:101A80007801002070B50D461646441E14F8010F6B
:101A900038B132462946FFF7A7FF03462078834234
:101AA000F4D070BD30B50024C3B08DF80810E1B299
:101AB000994204F101050AD30A220133014600923A
:101AC0009BB202AA054800F0D5FC43B030BD02AC81
:101AD0000C44515C61702C46E9E700BF24010020F2
:101AE0001FB50A238DF80C108DF80D2001460093C8
:101AF00003AA0223024800F0BDFC05B05DF804FB18
:101B00002401002038B5B0240E4D22460021782053
:101B1000FFF7E6FF002278201146FFF7E1FF0134CE
:101B2000102200217820FFF7DBFFE4B22A46802351
:101B300040217820FFF7B6FFB82C05F18005E4D1ED
:101B400038BD00BF7E01002008B50020FFF716FF5A
:101B5000BDE80840FFF7D6BF10B544F62063012268
:101B60007821524800F060FD0446002840F09C8037
:101B70000146AE227820FFF7B3FF202221467820CD
:101B8000FFF7AEFF102221467820FFF7A9FFB02211
:101B900021467820FFF7A4FFC82221467820FFF7CE
:101BA0009FFF224621467820FFF79AFF1022214608
:101BB0007820FFF795FF402221467820FFF790FF1D
:101BC000812221467820FFF78BFFFF2221467820D3
:101BD000FFF786FFA12221467820FFF781FFA6228A
:101BE00021467820FFF77CFFA82221467820FFF7C6
:101BF00077FF3F2221467820FFF772FFA42221467B
:101C00007820FFF76DFFD32221467820FFF768FF89
:101C1000224621467820FFF763FFD522214678200F
:101C2000FFF75EFFF02221467820FFF759FFD92207
:101C300021467820FFF754FF222221467820FFF723
:101C40004FFFDA2221467820FFF74AFF1222214671
:101C50007820FFF745FFDB2221467820FFF740FF81
:101C6000202221467820FFF73BFF8D222146782055
:101C7000FFF736FF142221467820FFF731FFAF220D
:101C800021467820FFF72CFF2E2221467820FFF7EF
:101C900027FF2046FFF772FEFFF734FF0120044BB9
:101CA0001C805C80587110BD0020FCE724010020DE
:101CB000780100200E4B82B09A6942F001029A61CD
:101CC0009A6902F001020092009ADA6942F08052A9
:101CD000DA61DB69074A03F080530193019B536883
:101CE00023F0E06343F00073536002B0704700BF1D
:101CF000001002400000014010B5044686B01022DA
:101D0000002102A801F02AF92268114B9A421CD145
:101D1000104CC022A369104843F00803A361A369D3
:101D200002A903F008030093009B1223CDE90223CC
:101D30000323059300F028F9E36943F40013E361FA
:101D4000E36903F400130193019B06B010BD00BFCB
:101D50000054004000100240000C01400268084B93
:101D600082B09A420AD103F564439A6942F4006250
:101D70009A619B6903F400630193019B02B0704771
:101D8000002C0140FEE7FEE7FEE7FEE7FEE77047B6
:101D90007047704700F07EB80B4A0346116810B5D3
:101DA00009B90A491160106809490A4C0344091B22
:101DB0008B4206D901F0DAF80C2303604FF0FF30B4
:101DC00010BD1360FCE700BF80050020D006002096
:101DD000005000200004000070470000FFF7FCFFE7
:101DE0000B480C490C4A002302E0D458C450043379
:101DF000C4188C42F9D3094A094C002301E013604E
:101E00000432A242FBD301F0B7F8FFF775FC70472C
:101E1000000000206C000020084F00086C0000202B
:101E2000D0060020FEE7000038B50E4B05461A78B4
:101E30004FF47A73B3FBF2F30B4A1068B0FBF3F084
:101E400000F08EF8044658B90F2D09D802462946ED
:101E50004FF0FF3000F054F82046044B1D6038BDB1
:101E60000120FCE7140000201000002018000020D2
:101E7000074A08B51368032043F01003136000F00D
:101E80002DF80F20FFF7D0FFFFF714FF002008BD4B
:101E900000200240034A044B11681B780B44136076
:101EA000704700BF8405002014000020014B186813
:101EB000704700BF8405002038B50446FFF7F6FFE1
:101EC0000546631C1EBF044B1B78E418FFF7EEFFAA
:101ED000431BA342FAD338BD140000200749030274
:101EE000CA6803F4E06322F4E0621204120C1343A4
:101EF00043F0BF6343F40033CB60704700ED00E074
:101F0000154B30B5DC68C4F30224C4F10703251D6A
:101F1000042B28BF0423062D4FF0FF3594BF002467
:101F2000033C05FA03F321EA0303A54022EA050274
:101F3000A340002843EA0203ACBF00F16040074A17
:101F40004FEA0313DBB2ABBF00F5614000F00F00B6
:101F500080F80033135430BD00ED00E014ED00E0D4
:101F60000138B0F1807F0BD24FF0E023F021054A19
:101F7000586182F823100020072298611A61704787
:101F80000120704700ED00E02DE9F74F00244FF0ED
:101F90000F0E2646DFF884C1614B00F104080A6881
:101FA00032FA06F502D103B0BDE8F08F012505FA3B
:101FB00006F702EA070537EA020276D14A68032AE1
:101FC00007D8013A022A00F28380DFE802F09196F6
:101FD0009C00122A00F0948069D8112A00F08A80AF
:101FE000FF2D94BF8146C1464FEA8602D9F80070A2
:101FF00088BF203A0EFA02FA27EA0A0704FA02F228
:102000001743C9F80070D1F8049019F0805F4CD0E4
:10201000DCF8182026F0030742F00102CCF8182063
:10202000DCF8182007F1804702F00102019207F561
:10203000803706F0030A019A4FEA8A0ABA680EFA54
:102040000AFB22EA0B0B374A904260D002F580620D
:1020500090425ED002F5806290425CD002F58062D0
:10206000904214BF0422032202FA0AF242EA0B024F
:10207000BA609A6819F4801F14BF2A43AA439A6071
:10208000DA6819F4001F14BF2A43AA43DA605A68B9
:1020900019F4003F14BF2A43AA435A601A6819F47E
:1020A000803F14BF2A43AA431A60013677E7DFF85E
:1020B00078904A450CD014D8A9F580194A4507D024
:1020C00009F570294A4503D0A9F580194A4587D1F9
:1020D0008A68D2B1012A4FF008040CBF076147613A
:1020E0007EE7DFF848904A45F2D009F58039EDE700
:1020F000CC6875E7CC68043472E7CC6808346FE7C5
:10210000CC680C346CE700246AE7042468E70022FA
:10211000AAE70122A8E70222A6E700BF00100240BA
:1021200000040140000801400000221000003110AE
:102130008368194214BF0120002070470AB1016171
:1021400070470904FBE7016800224B6913F48063C0
:1021500010D06FF480634B612023026380F83D3020
:1021600080F83E20036C80F83C2043F004030364B5
:1021700001207047184670472DE9F84606460F467D
:1021800091461D464FEA114A3368BAF1010F0CBF60
:102190005C699C6927EA0404A4B2B4FA84F4640973
:1021A000A14501D0002025E06A1CEED0FFF77EFE9D
:1021B000089BC01AA84201D8002DE5D13368BAF1B6
:1021C000010F0CBF5B699B6927EA03039BB2B3FA5B
:1021D00083F35B099945D7D1002320220120336383
:1021E00086F83D2086F83E30326C86F83C3042F06E
:1021F00020023264BDE8F8862DE9F04104460F461E
:10220000164698462568686927EA000080B2C0B182
:102210006B695A0517D52B68202243F400732B6095
:102220006FF480636B610023236384F83D2084F89E
:102230003E30236C43F0040323640023012084F820
:102240003C30BDE8F081731CDDD0FFF72FFEA0EB22
:102250000800B04201D8002ED4D123685A6927EA79
:10226000020292B2002ACDD000232022236384F8F8
:102270003D2084F83E30236C1343DDE770B50446FF
:102280000D46164623685B691B0601D500201EE03B
:102290002046FFF758FFC8B96A1CF3D0FFF706FEC7
:1022A000801BA84201D8002DECD123685B6913F094
:1022B0008003E7D12022236384F83D2084F83E3058
:1022C000226C84F83C3042F020022264012070BD70
:1022D00070B504460D46164623685B695B0701D559
:1022E00000201EE02046FFF72EFFC8B96A1CF3D07D
:1022F000FFF7DCFD801BA84201D8002DECD123683C
:102300005B6913F00403E7D12022236384F83D20A6
:1023100084F83E30226C84F83C3042F02002226483
:10232000012070BD70B5044608B9012070BD90F859
:102330003D3003F0FF021BB980F83C20FFF7DCFCC6
:10234000242384F83D3023681A6822F001021A60C1
:102350001A6842F400421A601A6822F400421A60B5
:1023600000F074FC3F4B65689D4294BF3E4B3F4B71
:1023700098428CBF00230123002BD6D1394E3C4B11
:10238000B542B0FBF3F388BF4FF4967622685168EC
:1023900021F03F0141EA030182BF73434FF47A7693
:1023A000B3FBF6F35160116A013321F03F010B4397
:1023B0001362D169431E2B4821F44F41854221F01D
:1023C000FF0132D86D00B3FBF5F340F6FC7001332A
:1023D000034242D0C3F30B031943D1611168D4E91E
:1023E000073021F0C00103430B4313609168D4E927
:1023F000030321F40341034321F0FF010B439360E6
:10240000D168D4E9053021F0FF0103430B43D360C9
:102410001368002043F0010313602023206484F834
:102420003D30206384F83E0080E7A06850B905EB9A
:102430004505B3FBF5F30133C3F30B037BB143F461
:102440000043C9E719206843B3FBF0F30133C3F33A
:102450000B0323B143F44043BEE70423BCE701234D
:10246000BAE700BFA08601007F841E00FF083D0080
:1024700040420F002DE9F043044685B098460D46D2
:1024800091460C9FFFF712FD94F83D300646202B35
:1024900004D00225284605B0BDE8F083009019233A
:1024A000012220465C49FFF767FE0028F1D194F82D
:1024B0003C30012BEDD00123216884F83C300B68BF
:1024C000DA075EBF0B6843F001030B600B6823F46F
:1024D00000630B60212384F83D30102384F83E30E4
:1024E00000232364A4F82A80638DC4F824902385F4
:1024F0004A4BE362E36A082B04D0012B02D013F5A8
:10250000803F04D10B6843F480730B6002E0236BBF
:10251000122BF7D000223B464FF0011120460096C7
:10252000FFF72AFE226840B11368DB0501D40125BC
:10253000B0E74FF400732364F9E72369B3F5804FE4
:1025400021D105F0FE05156133463A46204634494F
:10255000FFF752FE05460028E9D1236803905A6927
:1025600003929B690393039B238DF3B921680A6847
:1025700042F400720A60202284F83C3084F83D2046
:1025800084F83E3086E7EB1103F0060343F0F003D6
:102590001361204633463A462249FFF72DFE0028B4
:1025A000C5D12368EDB21D61CEE7324639462046DB
:1025B000FFF764FE40B1236C042BB8D12268136886
:1025C00043F400731360B2E7636A20681A4612F896
:1025D000011B01616262628D013A92B26285228DB5
:1025E000D0F814C0511E89B21CF0040F21850AD006
:1025F00049B15978023301616362638D023A013B4C
:102600009BB263852285324639462046FFF760FE3D
:102610000028A9D0CFE700BF020010000000FFFF94
:1026200002000100080001002DE9F04F044685B0CA
:102630001F4688469246FFF739FC94F83D30054620
:10264000202B03D0022005B0BDE8F08F00901923A5
:10265000012220464C49FFF78FFD0028F2D194F863
:102660003C30012BEED0012384F83C302368002657
:102670001A68DFF814B1D00758BF1A6808F0FE08CE
:102680005CBF42F001021A601A6822F400621A600C
:10269000242384F83D303D4B2664E36222684FF0EA
:1026A00001111368204643F4807313603B460022F7
:1026B0000095FFF761FD236838B11B680320D90539
:1026C00044BF4FF400732364BDE7C3F81080FFF7E5
:1026D000EDFB4FF0A009054623685A695B69C2F318
:1026E0004002C3F3802394F83D10A0291CD14FF081
:1026F0002009236884F83D905A6992072BD51A68FF
:10270000204642F400721A60002203925A691E4960
:1027100003929B6901220393039B00951923FFF702
:102720002BFD98B101208EE71343E0D1FFF7BEFBEC
:10273000401BB84200D80FB984F83D9023685A690D
:102740005B69C2F34002C3F38023CCE784F83D9079
:1027500084F83C0077E71A68594642F400721A6020
:102760006FF4806220465A61192301220095FFF719
:1027700003FD0028D6D1013656458FD384F83D900D
:1027800084F83C00CEE700BF020010000000FFFF0D
:102790002DE9F341054638B30368DB0710D42B68F5
:1027A0009F075ED42B68190700F195802B685A07A4
:1027B00000F1C180EB69002B40F02C81002029E062
:1027C000904C636803F00C03042B07D0636803F09C
:1027D0000C03082B0AD16368DE0307D523689C032A
:1027E000DDD56B68002BDAD1012013E06B68B3F5FF
:1027F000803F12D1236843F480332360FFF756FBF8
:10280000064623689803CAD4FFF750FB801B642850
:10281000F7D9032002B0BDE8F0819BB9236823F407
:1028200080332360236823F480232360FFF73EFB7B
:10283000064623689903B2D5FFF738FB801B64284E
:10284000F7D9E6E7B3F5A02F236803D143F480233B
:102850002360CFE723F480332360236823F48023AD
:10286000CBE7684C636813F00C0F07D0636803F084
:102870000C03082B10D16368DA030DD423689B077F
:1028800002D52B69012BAFD123686A6923F0F803C5
:1028900043EAC203236085E72A695B4B6AB10122E0
:1028A0001A60FFF703FB064623689F07ECD4FFF787
:1028B000FDFA801B0228F7D9ABE71A60FFF7F6FA9A
:1028C0000646236898077FF56DAFFFF7EFFA801B88
:1028D0000228F6D99DE7AA694A4E4B4BE2B1012284
:1028E000C3F88024FFF7E2FA0446736A9B070DD50C
:1028F0004FF4FA52454B1B68B3FBF2F3019300BF50
:10290000019B5A1E0192002BF9D14FE7FFF7CEFA37
:10291000001B0228E9D97CE7C3F88024FFF7C6FA38
:102920000446736A9F077FF541AFFFF7BFFA001BAC
:102930000228F6D96DE7334CE369D80024D4012787
:10294000E36943F08053E361E36903F0805300934C
:10295000009B2F4E3368D90518D5EB68012B26D183
:10296000236A43F001032362FFF7A0FA41F288389B
:102970000646236A9B073FD5002F3FF41BAFE36950
:1029800023F08053E36115E70027E2E7336843F45F
:1029900080733360FFF78AFA80463368DA05DCD447
:1029A000FFF784FAA0EB08006428F6D931E7ABB949
:1029B000236A41F2883823F001032362236A23F05B
:1029C00004032362FFF772FA0646236A9807D3D5F9
:1029D000FFF76CFA801B4045F7D91AE7052B236AED
:1029E00003D143F004032362BAE723F00103236217
:1029F000236A23F00403B6E7FFF758FA801B40452B
:102A0000B7D906E700100240000042421000002043
:102A1000007000402A4C626802F00C02082A3ED086
:102A20000022022B274B1A662CD1FFF73FFA0646ED
:102A30002368990120D42B6AB3F5803F05D16268E1
:102A4000A96822F400320A436260696A62680B4333
:102A500022F474121343012263601A4B1A66FFF7C3
:102A600025FA054623689A013FF5A8AEFFF71EFA3E
:102A7000401B0228F6D9CCE6FFF718FA801B022883
:102A8000D6D9C6E6FFF712FA054623689B017FF503
:102A900095AEFFF70BFA401B0228F6D9B9E6012BD9
:102AA0003FF4A2AE60682B6A00F480329A427FF451
:102AB0009BAE6B6A00F47010C01A18BF0120A9E623
:102AC00000100240000042420D4A536803F00C011E
:102AD000082912D10B48C3F38341DB03405C09D5BD
:102AE0005368094AC3F340435043084AD35CB0FBE0
:102AF000F3F07047064B584370470348704700BFD8
:102B000000100240F04E000800127A00EE4E00085D
:102B100000093D002DE9F0410D46044610B90120A1
:102B2000BDE8F081444A136803F007038B4228D3C1
:102B300021688E0730D4CA0743D43F4A136803F094
:102B40000703AB4265D822683C4D12F0040F6CD1EC
:102B5000130706D56B68226923F4605343EAC20366
:102B60006B60FFF7B1FF6B68354AC3F30313D35CA7
:102B7000D840344B1860344B1868FFF755F90020E3
:102B8000CEE7136823F007030B431360136803F0C9
:102B900007038B42C3D1CBE7284B11F0040F1EBFB4
:102BA0005A6842F4E0625A60080742BF5A6842F429
:102BB00060525A605A68A06822F0F00202435A60DC
:102BC000B9E762681D4E012A33681AD113F4003F39
:102BD000A5D0736841F2883823F003031343736070
:102BE000FFF764F907467368626803F00C03B3EB00
:102BF000820FA2D0FFF75AF9C01B4045F3D903203A
:102C00008EE7022A02D113F0007FE1E713F0020FF2
:102C1000DEE7136823F007032B431360136803F008
:102C20000703AB427FF47BAF8DE76B68E16823F469
:102C3000E0630B436B608BE7002002400010024012
:102C4000DE4E00081000002018000020044B054A4A
:102C50005B68C3F30223D35C034A1068D840704713
:102C600000100240D64E00081000002090F83D30C1
:102C7000012B1CD102230F4A80F83D300368934298
:102C80000AD0B3F1804F07D0A2F59432934203D01B
:102C900002F58062934204D19A6802F00702062A84
:102CA00003D01A6842F001021A6000207047012028
:102CB000704700BF002C0140174A036890420AD0B9
:102CC000B0F1804F07D0A2F59432904203D002F5C4
:102CD0008062904207D14A6823F070031343CA68A8
:102CE00023F4407313434A6923F0800313430360C2
:102CF0008B68C3620B688362074B984204BF0B6901
:102D00000363012343610369DB0742BF036923F0C7
:102D100001030361704700BF002C014010B5044659
:102D200030B390F83D3003F0FF021BB980F83C202F
:102D3000FFF714F80223206884F83D30211DFFF7C7
:102D4000BBFF0123002084F8463084F83E3084F82D
:102D50003F3084F8403084F8413084F8423084F8C1
:102D6000433084F8443084F8453084F83D3010BD59
:102D70000120FCE710B584680A4324F47F4442EA4A
:102D800003222243826010BD38B590F83C300446DF
:102D9000012B4FF0020000F08E80012284F83D00EC
:102DA000206884F83C20836823F47F4323F0770372
:102DB00083600B68602B4FD032D8402B64D016D87C
:102DC000202B0DD00AD833F0100109D0012384F84C
:102DD0003D30002384F83C30104638BD302BF5D10F
:102DE000826822F07002134343F0070328E0502B5F
:102DF000ECD14A68CD68016A036A21F00A0123F028
:102E00000103036283690A4323F0F00343EA0513D5
:102E100083610262836823F0700343F057030FE07D
:102E2000B3F5805F0DD0B3F5005F0CD0702BCDD122
:102E3000CB68D1E90121FFF79DFF836843F0770359
:102E400083600022C2E7CB68D1E90121FFF792FF3E
:102E5000836843F48043F3E7036A026A4D6822F013
:102E60001002C9680262826923F0A00322F4704252
:102E700043EA051342EA013282610362836823F068
:102E8000700343F06703DBE74A68CD68016A036AB1
:102E900021F00A0123F00103036283690A4323F04E
:102EA000F00343EA051383610262836823F0700331
:102EB00043F04703C4E702468EE7000030B590F8C0
:102EC0003C300246012B4FF0020022D0136882F8FA
:102ED0003D005C680D6824F070042C4398685C60C9
:102EE0000C4CA3420AD0B3F1804F07D0A4F5943420
:102EF000A34203D004F58064A34204D1496820F0C2
:102F00008000014399600123002082F83D3082F85F
:102F10003C0030BD002C01400EB46FF0004110B5F4
:102F200000249DB01FAB02900690079104910948C0
:102F3000094953F8042B0591006802A901931B94D9
:102F400000F09AF9029B1C701DB0BDE8104003B060
:102F5000704700BF1C0000200802FFFF0346024428
:102F6000934200D1704703F8011BF9E7014B186841
:102F7000704700BF1C00002070B500260C4D0D4CA2
:102F8000641BA410A64209D100F07EFC00260A4D65
:102F90000A4C641BA410A64205D170BD55F8043B31
:102FA00098470136EEE755F8043B98470136F2E7BB
:102FB000004F0008004F0008004F0008044F0008B1
:102FC00070477047034611F8012B03F8012B002AC4
:102FD000F9D1704738B50546002940D051F8043C76
:102FE0000C1F002BB8BFE41800F0DEF81C4A136871
:102FF00033B9636014602846BDE8384000F0DAB8A1
:10300000A34208D9206821188B4201BF19685B6868
:1030100009182160EDE71A465B680BB1A342FAD9A3
:1030200011685018A0420BD1206801445018834207
:103030001160E0D118685B68084410605360DAE7FB
:1030400002D90C232B60D6E7206821188B4201BFE0
:1030500019685B680918216063605460CBE738BD6C
:10306000CC06002070B50F4E0C463168054611B9EC
:1030700000F0A8FB30602146284600F0A3FB431C6B
:1030800003D14FF0FF34204670BDC41C24F003046C
:10309000A042F8D0211A284600F094FB0130F2D16A
:1030A000EFE700BFC80600202DE9F843CD1C25F04E
:1030B000030508350C2D38BF0C25002D064601DB15
:1030C000A94204D90C2333600020BDE8F883DFF85F
:1030D000D48000F069F8D8F800301C4644BB29467B
:1030E0003046FFF7BFFF431C044658D1D8F80040D4
:1030F0002746002F43D1002C4BD023683946304659
:1031000004EB030900F05EFB814542D121683046A3
:103110006D1A2946FFF7A6FF01303AD023682B44E9
:103120002360D8F800305A6862BBC8F800700FE01E
:103130002268521B20D40B2A17D96119A34225609B
:1031400018BF5960636808BFC8F8001062514B602F
:10315000304600F02FF804F10B00231D20F007008B
:10316000C21A1CBF1B1AA350AFE76268A3420CBF70
:10317000C8F800205A60EBE723466468AEE73C4697
:103180007F68B6E71A465B68A342FBD10023536011
:10319000DEE70C233046336000F00CF894E705605E
:1031A000D6E700BFCC0600200148FFF709BF00BFEB
:1031B000C40600200148FFF704BF00BFC40600207A
:1031C0002DE9F0471F468E688246BE420C46904667
:1031D0000B682DD8B1F90C2012F4906F26D06569D8
:1031E000096905EB4505A3EB010905EBD5757B1CCA
:1031F0004B446D109D4238BF1D46530527D52946C7
:10320000FFF752FF064660B34A46216900F0F8FA1C
:10321000A38923F4906343F08003A38126614E4485
:1032200026603E466561A5EB0905A560BE4200D952
:103230003E4632464146206800F0AAFA0020A368C4
:103240009B1BA360236833442360BDE8F0872A46B4
:1032500000F0E4FA06460028E0D150462169FFF765
:10326000B9FE0C23CAF80030A3894FF0FF3043F0B9
:103270004003A381E9E700002DE9F04F98468B89D0
:1032800007461B060D4614469DB010D50B6973B951
:103290004021FFF709FF2860286130B90C233B600B
:1032A0004FF0FF301DB0BDE8F08F40236B6100236D
:1032B000099320238DF8293030234FF00109CDF8F0
:1032C0000C80DFF898818DF82A3023469A4613F84F
:1032D000012B0AB1252AF9D1BAEB040B0BD05B46BE
:1032E000224629463846FFF76BFF013000F0A780E1
:1032F000099A5A4409929AF80030002B00F09F80F6
:1033000000234FF0FF32CDE905230AF1010A0493AF
:1033100007938DF853301A935446052214F8011B75
:103320004E4800F05FFA049AD8B9D00644BF202373
:103330008DF85330110744BF2B238DF853309AF882
:1033400000302A2B15D0544600204FF00A0C079A63
:10335000214611F8013B303B092B4BD9B0B1079204
:1033600014E0A0EB080309FA03F31343A246049305
:10337000D2E7039B191D1B680391002BBBBF5B4267
:1033800042F0020207930793B8BF049223782E2BD2
:103390000AD163782A2B32D1039B02341A1D1B6891
:1033A000039243EAE3730593DFF8B4A00322504687
:1033B000217800F017FA38B14022049BA0EB0A00F4
:1033C000824013430134049314F8011B062225485C
:1033D0008DF8281000F006FA002836D0224B1BBBCF
:1033E000039B073323F0070308330393099B3344FC
:1033F00009936AE70C4601200CFB0232A8E7002380
:103400004FF00A0C194601340593204610F8012BA1
:10341000303A092A03D9002BC6D00591C4E70446E7
:1034200001230CFB0121F0E703AB00932A46384649
:103430000E4B04A9AFF30080421C0646D6D1AB89DF
:103440005B063FF52DAF09982CE703AB00932A46A6
:103450003846064B04A900F07DF8EDE7A34E0008BE
:10346000A94E0008AD4E000800000000C131000860
:103470002DE9F047164698468A680B69074693423D
:10348000B8BF1346336091F843200C46DDF8209016
:103490000AB1013333602368990642BF33680233AF
:1034A0003360256815F0060506D104F1190AE368B2
:1034B00032689B1AAB422BDC94F843302268003B05
:1034C00018BF0123920630D44146384604F1430226
:1034D000C847013023D02368226903F00603042B78
:1034E00014BF002533684FF0000608BFE56804F1FB
:1034F0001A0408BFED1A54F8123C08BF25EAE57516
:103500009342C4BF9B1AED18B5421AD1002008E0BF
:103510000123524641463846C847013003D14FF097
:10352000FF30BDE8F0870135C1E73020E11881F8B0
:1035300043005A1C94F845102244023382F8431089
:10354000C2E70123224641463846C8470130E6D04B
:103550000136D9E72DE9FF470F7E9146782F804647
:103560000C469A460C9E01F1430207D8622F0AD8F6
:10357000002F00F0D180582F00F0B88004F14206EF
:1035800084F842703AE0A7F16303152BF6D801A145
:1035900051F823F0ED350008013600087D350008AC
:1035A0007D3500087D3500087D35000801360008AE
:1035B0007D3500087D3500087D3500087D35000823
:1035C000FF3600082B360008B93600087D350008A4
:1035D0007D350008213700087D3500082B360008AE
:1035E0007D3500087D350008C136000833681A1D96
:1035F0001B68326004F1420684F8423001239CE0EB
:1036000033682068191D3160060601D51D6803E086
:103610004506FBD5B3F90050002D03DA2D236D428A
:1036200084F843300A23584811E0216833680806BB
:1036300053F8045B02D4490648BFADB26F2F336024
:1036400014BF0A2308235048002184F843106668F9
:10365000002EA66005DB21682E4321F004012160C5
:103660004BD01646B5FBF3F103FB1157C75D06F8C7
:10367000017D2F46BB420D46F4D9082B0BD12368A0
:10368000DF0708D5236961689942DEBF302306F859
:10369000013C06F1FF36921B22614B462146404613
:1036A000CDF800A003AAFFF7E3FE01304AD14FF0A6
:1036B000FF3004B0BDE8F087236843F020032360A7
:1036C0007827324884F84570236831681F0651F81E
:1036D000045B02D45F0648BFADB23160D90744BF76
:1036E00043F0200323601DB11023ADE72648E9E72E
:1036F000236823F020032360F6E71646BDE733680E
:103700002568181D616930602E061B6801D5196097
:1037100002E06806FBD51980002316462361BCE74A
:10372000336800211A1D32601E686268304600F05E
:1037300059F808B1801B606063682361002384F836
:103740004330AAE73246494640462369D047013014
:10375000ADD023689B0713D4E068039B9842B8BFA1
:103760001846A6E70123324649464046D047013075
:103770009DD00135E36803995B1AAB42F2DCEBE7BD
:10378000002504F11906F5E7B44E0008C54E0008FF
:10379000884210B501EB020402D98442234607D8BF
:1037A000431EA14208D011F8012B03F8012FF8E7BE
:1037B000014602448A4200D110BD13F8014D02F8BF
:1037C000014DF7E738B50023054D044608462B6048
:1037D000FEF7E2FA431C02D12B6803B1236038BD27
:1037E000C0060020034610B5C9B2024493421846F1
:1037F00001D1002003E0047801338C42F6D110BDE2
:103800000A44914200F1FF3300D1704710B511F81E
:10381000014B914203F8014FF9D110BD2DE9F04160
:10382000074614460D4621B91146BDE8F041FFF7A1
:103830003BBC2AB9FFF7CEFB25462846BDE8F08100
:1038400000F01AF88442064602D8B4EB500FF4D8C0
:1038500021463846FFF728FC804608B94546ECE784
:10386000B4422246294628BF3246FFF7C9FF2946FF
:103870003846FFF7AFFBF1E751F8043C181F002B67
:10388000BCBF0B58C0187047F8B500BFF8BC08BCE7
:103890009E467047F8B500BFF8BC08BC9E4670470E
:1038A0000000000000000000000000000000000018
:1038B0000000000000000000000000000000000008
:1038C000000000000000000C000C000C000C000CBC
:1038D000000C000C000C000C000C000C0000000C94
:1038E000000C0000000000000000001B001B001B7B
:1038F000001B001B00000000000000000000000092
:10390000000000000000000000000000000080191E
:10391000801980198019C07FC07F80190033C07F53
:10392000C07F00330033003300330000000000008C
:103930000000001E003F807580650074003C001E82
:1039400000078005806580658075003F001E0004CB
:10395000000400000000007000D840D8C0D880D912
:1039600000730006000C801BC036C066C046C0064F
:1039700080030000000000000000001E003F003334
:1039800000330033001E000CC03CC06680638061C1
:103990008063C03E801C0000000000000000000C9E
:1039A000000C000C000C000C0000000000000000E7
:1039B0000000000000000000000000000000000007
:1039C000800000010003000600060004000C000C4B
:1039D000000C000C000C000C0004000600060003A4
:1039E00000018000002000100018000C000C0004F2
:1039F0000006000600060006000600060004000C93
:103A0000000C0018001000200000000C002D003FEA
:103A1000001E003300000000000000000000000055
:103A20000000000000000000000000000000000096
:103A30000000000C000C000C000CC0FFC0FF000CCC
:103A4000000C000C000C0000000000000000000052
:103A50000000000000000000000000000000000066
:103A600000000000000000000000000C000C00043A
:103A7000000400080000000000000000000000003A
:103A8000000000000000001E001E000000000000FA
:103A90000000000000000000000000000000000026
:103AA0000000000000000000000000000000000016
:103AB0000000000C000C00000000000000000003EB
:103AC000000300030006000600060006000C000CC0
:103AD000000C000C00180018001800000000000086
:103AE0000000001E003F0033806180618061806DB6
:103AF000806D8061806180610033003F001E0000A6
:103B00000000000000000006000E001E0036002627
:103B10000006000600060006000600060006000675
:103B200000060000000000000000001E003F80733F
:103B300080618061800100030006000C00180030E5
:103B40000060807F807F0000000000000000001CFB
:103B5000003E006300630003000E000E00038001BE
:103B6000800180618073003F001E000000000000A3
:103B700000000006000E000E001E001E001600369B
:103B800000360066807F807F000600060006000089
:103B9000000000000000007F007F00600060006007
:103BA000006E007F80638001800180618073003F30
:103BB000001E0000000000000000001E003F8033D7
:103BC00080610060006E007F807380618061806131
:103BD0008033003F001E0000000000000000807FD6
:103BE000807F80010003000300060006000C000C2B
:103BF000000C000800180018001800000000000069
:103C00000000001E003F8063806180610021001E73
:103C1000003F8061806180618061003F001E000084
:103C2000000000000000001E003F00738061806102
:103C300080618073803F801D800180610073003F40
:103C4000001E000000000000000000000000000056
:103C50000000000C000C000000000000000000004C
:103C60000000000C000C000000000000000000003C
:103C70000000000000000000000C000C000000002C
:103C8000000000000000000C000C0004000400080C
:103C9000000000000000000080008003000E0038DB
:103CA00000600038000E800380000000000000006B
:103CB0000000000000000000000000000000807F05
:103CC000807F00000000807F807F000000000000F7
:103CD00000000000000000000000000000000000E4
:103CE00000400070001C000780010007001C0070ED
:103CF0000040000000000000000000000000001F65
:103D0000803FC071C060C000C00180030007000E8A
:103D1000000C000C0000000C000C00000000000073
:103D20000000001E003F803180718063806F806DD5
:103D3000806D806F806700600032003E001C0000D4
:103D4000000000000000000E000E001B001B001B06
:103D5000001B80318031803F803F8031C060C06077
:103D6000C0600000000000000000007C007E0063D6
:103D7000006300630063007E007E006380618061F9
:103D80008063007F007E0000000000000000001E35
:103D9000003F803180610060006000600060006072
:103DA000006080618031003F001E000000000000C4
:103DB0000000007C007F006380638061806180611F
:103DC00080618061806100630063007E007C000090
:103DD000000000000000807F807F006000600060C5
:103DE0000060007F007F0060006000600060807FF6
:103DF000807F0000000000000000807F807F006066
:103E0000006000600060007F007F00600060006074
:103E10000060006000600000000000000000001E64
:103E2000003F8031806100600060006080638063DB
:103E3000806180618031803F001E00000000000032
:103E40000000806180618061806180618061807F2D
:103E5000807F80618061806180618061806100001D
:103E6000000000000000003F003F000C000C000CB0
:103E7000000C000C000C000C000C000C000C003FAF
:103E8000003F000000000000000080018001800170
:103E9000800180018001800180018001806180615A
:103EA0008073003F001E0000000000000000C060A2
:103EB0008061006300660066006C0078007C00662C
:103EC0000066006380618061C06000000000000047
:103ED0000000006000600060006000600060006042
:103EE00000600060006000600060807F807F0000F4
:103EF000000000000000C071C071C07BC07AC06AC1
:103F0000C06AC06EC064C060C060C060C060C06095
:103F1000C0600000000000000000807180718079A6
:103F200080798079806D806D806D80658067806725
:103F30008067806380630000000000000000001EB6
:103F4000003F0033806180618061806180618061B9
:103F5000806180610033003F001E0000000000000F
:103F60000000007E007F80638061806180618063EB
:103F7000007F007E00600060006000600060000064
:103F8000000000000000001E003F003380618061DF
:103F90008061806180618061806580670033803FDF
:103FA000401E0000000000000000007E007F8063D3
:103FB000806180618063007F007E00660063006333
:103FC00080618061C0600000000000000000000E01
:103FD000001F8031803100300038001E0007800350
:103FE000806180618031003F001E00000000000001
:103FF0000000C0FFC0FF000C000C000C000C000C07
:10400000000C000C000C000C000C000C000C00005C
:10401000000000000000806180618061806180613B
:104020008061806180618061806180618073003F18
:10403000001E0000000000000000C060C060C06002
:10404000803180318031001B001B001B001B000EE3
:10405000000E000E00040000000000000000C0C0C0
:10406000C0C0C0C0C0C0C0C0C0CC804C804C805E4E
:1040700080528052807380618061000000000000E7
:104080000000C0C0806080610033003B001E000C57
:10409000000C001E001F003B80718061C0C000004A
:1040A000000000000000C0C0806180610033003368
:1040B000001E001E000C000C000C000C000C000C7C
:1040C000000C0000000000000000803F803F8001E5
:1040D000000300030006000C000C0018001800305C
:1040E0000060807F807F000000000000000F000F54
:1040F000000C000C000C000C000C000C000C000C60
:10410000000C000C000C000C000C000C000F000F49
:104110000000001800180018000C000C000C000C27
:10412000000600060006000600030003000300006E
:1041300000000000001E001E00060006000600062B
:10414000000600060006000600060006000600063F
:1041500000060006001E001E0000000C000C001EE1
:104160000012003300338061806100000000000015
:10417000000000000000000000000000000000003F
:10418000000000000000000000000000000000002F
:10419000000000000000000000000000E0FF000040
:1041A000000000380018000C0000000000000000B3
:1041B00000000000000000000000000000000000FF
:1041C0000000000000000000000000000000001FD0
:1041D000803F80618001801F803F80618063807F9D
:1041E000C0380000000000000000006000600060B7
:1041F0000060006E007F80738061806180618061FB
:104200008073007F006E00000000000000000000CE
:10421000000000000000001E003F8073806100600D
:10422000006080618073003F001E000000000000FD
:1042300000008001800180018001801D803F80732B
:1042400080618061806180618073803F801D00009B
:104250000000000000000000000000000000001E40
:10426000003F00738061807F807F00608071003F2D
:10427000001E0000000000000000C007C00F000C7E
:10428000000C807F807F000C000C000C000C000CE8
:10429000000C000C000C00000000000000000000FA
:1042A00000000000801D803F80738061806180611C
:1042B00080618073803F801D80018063007F003EAD
:1042C00000000060006000600060006F807F80710F
:1042D00080618061806180618061806180610000B7
:1042E0000000000000000006000600000000003E84
:1042F000003E000600060006000600060006000656
:10430000000600000000000000060006000000009B
:10431000003E003E000600060006000600060006FD
:104320000006000600060046007E003C000000601B
:10433000006000600060806100630066006C007CCB
:104340000076006300638061C06000000000000030
:104350000000003E003E00060006000600060006C3
:104360000006000600060006000600060006000023
:10437000000000000000000000000000000080DDE0
:10438000C0FFC0CEC0CCC0CCC0CCC0CCC0CCC0CC98
:10439000C0CC000000000000000000000000000091
:1043A0000000006F807F807180618061806180612A
:1043B000806180618061000000000000000000005A
:1043C000000000000000001E003F807380618061DB
:1043D000806180618073003F001E000000000000CB
:1043E0000000000000000000006E007F807380610C
:1043F0008061806180618073007F006E006000607A
:10440000006000600000000000000000801D803F90
:10441000807380618061806180618073803F801DD6
:104420008001800180018001000000000000000088
:1044300000000067803F003900300030003000305D
:1044400000300030003000000000000000000000DC
:10445000000000000000001E803F80610060007FBF
:10446000803F80018061007F001E0000000000008E
:1044700000000000000800180018007F007F0018EE
:1044800000180018001800180018801F800F000086
:10449000000000000000000000000000000080613B
:1044A0008061806180618061806180618063807FE4
:1044B000803D00000000000000000000000000003F
:1044C0000000C060803180318031001B001B001B68
:1044D000000E000E000600000000000000000000BA
:1044E00000000000000080DD80DD80DD005500550B
:1044F0000055007700770022002200000000000035
:104500000000000000000000000080610033003364
:10451000001E000C000C001E003300338061000000
:1045200000000000000000000000000080618061C9
:10453000803100330033001B001B001B000E000EF7
:10454000000E001C007C0070000000000000000055
:104550000000C07FC07F800100030006000C00182F
:104560000030C07FC07F0000000000008003800793
:1045700000060006000600060006000E001C001CD7
:10458000000E0006000600060006000680078003F5
:1045900000060006000600060006000600060006EB
:1045A00000060006000600060006000600060006DB
:1045B000000600060038003C000C000C000C000C4B
:1045C000000C000E00070007000E000C000C000C91
:1045D000000C000C003C003800000000000000004F
:1045E0000000000000008038807F004700000000CD
:1045F00000000000000000000000000000000000BB
:1046000000000000000000000000000000000000AA
:10461000001000100010001000100010000000102A
:104620000000000000280028002800000000000012
:10463000000000000000000000240024007C002492
:104640000048007C0048004800000000003800548A
:1046500000500038001400540054003800100000CE
:1046600000200054005800300028005400140008B6
:10467000000000000010002800280010003400484E
:10468000004800340000000000100010001000007E
:104690000000000000000000000000000008001002
:1046A0000020002000200020002000200010000832
:1046B000002000100008000800080008000800089A
:1046C000001000200010003800100028000000003A
:1046D00000000000000000000000000000100010BA
:1046E000007C00100010000000000000000000002E
:1046F000000000000000000000000010001000108A
:104700000000000000000000000000380000000071
:104710000000000000000000000000000000000099
:104720000000001000000000000800080010001049
:10473000001000100020002000000000003800449D
:1047400000440054004400440044003800000000CD
:104750000010003000500010001000100010001079
:10476000000000000038004400440004000800106D
:104770000020007C00000000003800440004001805
:104780000004000400440038000000000008001885
:10479000002800280048007C0008000800000000F5
:1047A000007C004000400078000400040044003811
:1047B000000000000038004400400078004400443D
:1047C0000044003800000000007C000400080010D5
:1047D00000100020002000200000000000380044ED
:1047E0000044003800440044004400380000000049
:1047F0000038004400440044003C000400440038F9
:104800000000000000000000001000000000000098
:104810000000001000000000000000000000001078
:104820000000000000000010001000100000000058
:10483000000C003000400030000C000000000000C0
:10484000000000000000007C0000007C0000000070
:1048500000000000000000000060001800040018C4
:104860000060000000000000003800440004000860
:10487000001000100000001000000000003800448C
:10488000004C0054005C0040004000380000000074
:1048900000100028002800280028007C0044004464
:1048A0000000000000780044004400780044004408
:1048B0000044007800000000003800440040004040
:1048C0000040004000440038000000000070004834
:1048D0000044004400440044004800700000000010
:1048E000007C00400040007C004000400040007C14
:1048F00000000000007C00400040007800400040C4
:10490000004000400000000000380044004000402B
:10491000005C0044004400380000000000440044F3
:104920000044007C004400440044004400000000B7
:1049300000380010001000100010001000100038A7
:10494000000000000004000400040004000400044F
:10495000004400380000000000440048005000609F
:1049600000500048004800440000000000400040A3
:1049700000400040004000400040007C000000007B
:104980000044006C006C00540044004400440044A7
:104990000000000000440064006400540054004C17
:1049A000004C004400000000003800440044004473
:1049B0000044004400440038000000000078004437
:1049C0000044004400780040004000400000000027
:1049D00000380044004400440044004400540038BF
:1049E00000040000007800440044004400780048BF
:1049F000004800440000000000380044004000303F
:104A0000000800040044003800000000007C001092
:104A10000010001000100010001000100000000036
:104A20000044004400440044004400440044003872
:104A30000000000000440044004400280028002832
:104A40000010001000000000004400440054005416
:104A50000054006C002800280000000000440028DA
:104A6000002800100010002800280044000000006A
:104A7000004400440028002800100010001000101E
:104A800000000000007C000400080010001000205E
:104A90000040007C00000000001800100010001012
:104AA000001000100010001000100018002000205E
:104AB00000100010001000100008000800000000A6
:104AC0000030001000100010001000100010001046
:104AD00000100030001000280028004400000000F2
:104AE00000000000000000000000000000000000C6
:104AF0000000000000000000000000FE0020001088
:104B000000000000000000000000000000000000A5
:104B10000000000000380044003C0044004C003419
:104B200000000000004000400058006400440044C1
:104B3000006400580000000000000000003800443D
:104B40000040004000440038000000000004000461
:104B50000034004C00440044004C003400000000CD
:104B60000000000000380044007C00400044003891
:104B700000000000000C0010007C0010001000106D
:104B80000010001000000000000000000034004C85
:104B900000440044004C0034000400780040004011
:104BA0000058006400440044004400440000000039
:104BB0000010000000700010001000100010001025
:104BC0000000000000100000007000100010001035
:104BD00000100010001000E00040004000480050AD
:104BE0000060005000480044000000000070001009
:104BF0000010001000100010001000100000000055
:104C00000000000000780054005400540054005488
:104C10000000000000000000005800640044004450
:104C20000044004400000000000000000038004480
:104C30000044004400440038000000000000000070
:104C400000580064004400440064005800400040E4
:104C5000000000000034004C00440044004C0034CC
:104C60000004000400000000005800640040004000
:104C70000040004000000000000000000038004438
:104C80000030000800440038000000000020002030
:104C90000078002000200020002000180000000004
:104CA000000000000044004400440044004C003474
:104CB000000000000000000000440044002800281C
:104CC0000028001000000000000000000054005404
:104CD0000054006C002800280000000000000000C4
:104CE00000440028001000100028004400000000CC
:104CF00000000000004400440028002800100010BC
:104D00000010006000000000007C0008001000207F
:104D10000040007C0000000000180010001000108F
:104D200000200020001000100010001800100010DB
:104D300000100010001000100010001000100010F3
:104D400000300010001000100008000800100010D3
:104D5000001000300000000000000074004C000053
:104D60000000000000000000536D6172742046696D
:104D700072652C00476173202620456E76004D6FCA
:104D80006E69746F720076312E3000212121204629
:104D90004952452021212100455641435541544562
:104DA000204E4F572100543A25644320483A256449
:104DB000252500543A2D2D4320483A2D2D25250038
:104DC000443A2564636D00443A2D2D2D636D002116
:104DD0002120474153204C45414B20212100474190
:104DE000532044455445435445440021204F4253E9
:104DF0005441434C45202100446973743A20256492
:104E0000636D00446973743A202D2D2D636D004647
:104E10004952452100474153210053797374656D10
:104E20003A205341464500446973743A202533645F
:104E3000636D0054656D703A202532642E256443FD
:104E40000054656D703A202D2D2E2D430048756D50
:104E50003A202532642E256425250048756D3A20B8
:104E60002D2D2E2D252500463A2025642E2564461D
:104E7000005374617475733A204E6F726D616C00EB
:104E80003E2046495245204445544543544544201C
:104E90003C003E204741532044455445435445443B
:104EA000203C00232D302B2000686C4C0065666789
:104EB0004546470030313233343536373839414290
:104EC0004344454600303132333435363738396162
:104ED00062636465660000000000010203040000D4
:104EE0000000000000000102030406070809010297
:104EF00002030405060708090A0B0C0D0E0F10101B
:044F0000350100086F
:044F0400110100088F
:104F08000B120000A0380008070A0000FC45000842
:104F180000127A00010000001000000020000020AC
:104F28000000000088050020F00500205806002039
:104F38000000000000000000000000000000000069
:104F48000000000000000000000000000000000059
:104F58000000000000000000000000000000000049
:0C4F68000000000000000000000000003D
:0400000508001DDDF5
:00000001FF
